{
  "contractName": "ERC721Token",
  "abi": [
    {
      "inputs": [
        {
          "internalType": "string",
          "name": "_name",
          "type": "string"
        },
        {
          "internalType": "string",
          "name": "_symbol",
          "type": "string"
        }
      ],
      "stateMutability": "nonpayable",
      "type": "constructor"
    },
    {
      "anonymous": false,
      "inputs": [
        {
          "indexed": true,
          "internalType": "address",
          "name": "owner",
          "type": "address"
        },
        {
          "indexed": true,
          "internalType": "address",
          "name": "approved",
          "type": "address"
        },
        {
          "indexed": true,
          "internalType": "uint256",
          "name": "tokenId",
          "type": "uint256"
        }
      ],
      "name": "Approval",
      "type": "event"
    },
    {
      "anonymous": false,
      "inputs": [
        {
          "indexed": true,
          "internalType": "address",
          "name": "owner",
          "type": "address"
        },
        {
          "indexed": true,
          "internalType": "address",
          "name": "operator",
          "type": "address"
        },
        {
          "indexed": false,
          "internalType": "bool",
          "name": "approved",
          "type": "bool"
        }
      ],
      "name": "ApprovalForAll",
      "type": "event"
    },
    {
      "anonymous": false,
      "inputs": [
        {
          "indexed": true,
          "internalType": "address",
          "name": "from",
          "type": "address"
        },
        {
          "indexed": true,
          "internalType": "address",
          "name": "to",
          "type": "address"
        },
        {
          "indexed": true,
          "internalType": "uint256",
          "name": "tokenId",
          "type": "uint256"
        }
      ],
      "name": "Transfer",
      "type": "event"
    },
    {
      "inputs": [
        {
          "internalType": "address",
          "name": "to",
          "type": "address"
        },
        {
          "internalType": "uint256",
          "name": "tokenId",
          "type": "uint256"
        }
      ],
      "name": "approve",
      "outputs": [],
      "stateMutability": "nonpayable",
      "type": "function"
    },
    {
      "inputs": [
        {
          "internalType": "address",
          "name": "owner",
          "type": "address"
        }
      ],
      "name": "balanceOf",
      "outputs": [
        {
          "internalType": "uint256",
          "name": "",
          "type": "uint256"
        }
      ],
      "stateMutability": "view",
      "type": "function",
      "constant": true
    },
    {
      "inputs": [
        {
          "internalType": "uint256",
          "name": "tokenId",
          "type": "uint256"
        }
      ],
      "name": "getApproved",
      "outputs": [
        {
          "internalType": "address",
          "name": "",
          "type": "address"
        }
      ],
      "stateMutability": "view",
      "type": "function",
      "constant": true
    },
    {
      "inputs": [
        {
          "internalType": "address",
          "name": "owner",
          "type": "address"
        },
        {
          "internalType": "address",
          "name": "operator",
          "type": "address"
        }
      ],
      "name": "isApprovedForAll",
      "outputs": [
        {
          "internalType": "bool",
          "name": "",
          "type": "bool"
        }
      ],
      "stateMutability": "view",
      "type": "function",
      "constant": true
    },
    {
      "inputs": [],
      "name": "name",
      "outputs": [
        {
          "internalType": "string",
          "name": "",
          "type": "string"
        }
      ],
      "stateMutability": "view",
      "type": "function",
      "constant": true
    },
    {
      "inputs": [
        {
          "internalType": "uint256",
          "name": "tokenId",
          "type": "uint256"
        }
      ],
      "name": "ownerOf",
      "outputs": [
        {
          "internalType": "address",
          "name": "",
          "type": "address"
        }
      ],
      "stateMutability": "view",
      "type": "function",
      "constant": true
    },
    {
      "inputs": [
        {
          "internalType": "address",
          "name": "from",
          "type": "address"
        },
        {
          "internalType": "address",
          "name": "to",
          "type": "address"
        },
        {
          "internalType": "uint256",
          "name": "tokenId",
          "type": "uint256"
        }
      ],
      "name": "safeTransferFrom",
      "outputs": [],
      "stateMutability": "nonpayable",
      "type": "function"
    },
    {
      "inputs": [
        {
          "internalType": "address",
          "name": "from",
          "type": "address"
        },
        {
          "internalType": "address",
          "name": "to",
          "type": "address"
        },
        {
          "internalType": "uint256",
          "name": "tokenId",
          "type": "uint256"
        },
        {
          "internalType": "bytes",
          "name": "data",
          "type": "bytes"
        }
      ],
      "name": "safeTransferFrom",
      "outputs": [],
      "stateMutability": "nonpayable",
      "type": "function"
    },
    {
      "inputs": [
        {
          "internalType": "address",
          "name": "operator",
          "type": "address"
        },
        {
          "internalType": "bool",
          "name": "approved",
          "type": "bool"
        }
      ],
      "name": "setApprovalForAll",
      "outputs": [],
      "stateMutability": "nonpayable",
      "type": "function"
    },
    {
      "inputs": [
        {
          "internalType": "bytes4",
          "name": "interfaceId",
          "type": "bytes4"
        }
      ],
      "name": "supportsInterface",
      "outputs": [
        {
          "internalType": "bool",
          "name": "",
          "type": "bool"
        }
      ],
      "stateMutability": "view",
      "type": "function",
      "constant": true
    },
    {
      "inputs": [],
      "name": "symbol",
      "outputs": [
        {
          "internalType": "string",
          "name": "",
          "type": "string"
        }
      ],
      "stateMutability": "view",
      "type": "function",
      "constant": true
    },
    {
      "inputs": [
        {
          "internalType": "uint256",
          "name": "tokenId",
          "type": "uint256"
        }
      ],
      "name": "tokenURI",
      "outputs": [
        {
          "internalType": "string",
          "name": "",
          "type": "string"
        }
      ],
      "stateMutability": "view",
      "type": "function",
      "constant": true
    },
    {
      "inputs": [
        {
          "internalType": "address",
          "name": "from",
          "type": "address"
        },
        {
          "internalType": "address",
          "name": "to",
          "type": "address"
        },
        {
          "internalType": "uint256",
          "name": "tokenId",
          "type": "uint256"
        }
      ],
      "name": "transferFrom",
      "outputs": [],
      "stateMutability": "nonpayable",
      "type": "function"
    },
    {
      "inputs": [
        {
          "internalType": "address",
          "name": "_to",
          "type": "address"
        },
        {
          "internalType": "uint256",
          "name": "_tokenId",
          "type": "uint256"
        },
        {
          "internalType": "address",
          "name": "_erc20Token",
          "type": "address"
        },
        {
          "internalType": "uint256",
          "name": "_amount",
          "type": "uint256"
        }
      ],
      "name": "mint",
      "outputs": [],
      "stateMutability": "nonpayable",
      "type": "function"
    },
    {
      "inputs": [
        {
          "internalType": "uint256",
          "name": "_tokenId",
          "type": "uint256"
        },
        {
          "internalType": "address",
          "name": "_to",
          "type": "address"
        }
      ],
      "name": "transferERC721",
      "outputs": [],
      "stateMutability": "nonpayable",
      "type": "function"
    },
    {
      "inputs": [
        {
          "internalType": "uint256",
          "name": "_tokenId",
          "type": "uint256"
        },
        {
          "internalType": "address",
          "name": "_to",
          "type": "address"
        }
      ],
      "name": "transferERC20",
      "outputs": [],
      "stateMutability": "nonpayable",
      "type": "function"
    }
  ],
  "bytecode": "0x60806040523480156200001157600080fd5b5060405162002fd738038062002fd78339818101604052810190620000379190620002c2565b818181600090805190602001906200005192919062000075565b5080600190805190602001906200006a92919062000075565b5050505050620003ac565b828054620000839062000376565b90600052602060002090601f016020900481019282620000a75760008555620000f3565b82601f10620000c257805160ff1916838001178555620000f3565b82800160010185558215620000f3579182015b82811115620000f2578251825591602001919060010190620000d5565b5b50905062000102919062000106565b5090565b5b808211156200012157600081600090555060010162000107565b5090565b6000604051905090565b600080fd5b600080fd5b600080fd5b600080fd5b6000601f19601f8301169050919050565b7f4e487b7100000000000000000000000000000000000000000000000000000000600052604160045260246000fd5b6200018e8262000143565b810181811067ffffffffffffffff82111715620001b057620001af62000154565b5b80604052505050565b6000620001c562000125565b9050620001d3828262000183565b919050565b600067ffffffffffffffff821115620001f657620001f562000154565b5b620002018262000143565b9050602081019050919050565b60005b838110156200022e57808201518184015260208101905062000211565b838111156200023e576000848401525b50505050565b60006200025b6200025584620001d8565b620001b9565b9050828152602081018484840111156200027a57620002796200013e565b5b620002878482856200020e565b509392505050565b600082601f830112620002a757620002a662000139565b5b8151620002b984826020860162000244565b91505092915050565b60008060408385031215620002dc57620002db6200012f565b5b600083015167ffffffffffffffff811115620002fd57620002fc62000134565b5b6200030b858286016200028f565b925050602083015167ffffffffffffffff8111156200032f576200032e62000134565b5b6200033d858286016200028f565b9150509250929050565b7f4e487b7100000000000000000000000000000000000000000000000000000000600052602260045260246000fd5b600060028204905060018216806200038f57607f821691505b60208210811415620003a657620003a562000347565b5b50919050565b612c1b80620003bc6000396000f3fe608060405234801561001057600080fd5b50600436106101005760003560e01c806342842e0e11610097578063a22cb46511610066578063a22cb465146102a9578063b88d4fde146102c5578063c87b56dd146102e1578063e985e9c51461031157610100565b806342842e0e1461020f5780636352211e1461022b57806370a082311461025b57806395d89b411461028b57610100565b80630c86dbef116100d35780630c86dbef1461019f57806323b872dd146101bb5780632cf56833146101d75780633c173a4f146101f357610100565b806301ffc9a71461010557806306fdde0314610135578063081812fc14610153578063095ea7b314610183575b600080fd5b61011f600480360381019061011a9190611c3d565b610341565b60405161012c9190611c85565b60405180910390f35b61013d610423565b60405161014a9190611d39565b60405180910390f35b61016d60048036038101906101689190611d91565b6104b5565b60405161017a9190611dff565b60405180910390f35b61019d60048036038101906101989190611e46565b6104fb565b005b6101b960048036038101906101b49190611e86565b610613565b005b6101d560048036038101906101d09190611ec6565b610827565b005b6101f160048036038101906101ec9190611e86565b610887565b005b61020d60048036038101906102089190611f19565b610954565b005b61022960048036038101906102249190611ec6565b610a81565b005b61024560048036038101906102409190611d91565b610aa1565b6040516102529190611dff565b60405180910390f35b61027560048036038101906102709190611f80565b610b28565b6040516102829190611fbc565b60405180910390f35b610293610be0565b6040516102a09190611d39565b60405180910390f35b6102c360048036038101906102be9190612003565b610c72565b005b6102df60048036038101906102da9190612178565b610c88565b005b6102fb60048036038101906102f69190611d91565b610cea565b6040516103089190611d39565b60405180910390f35b61032b600480360381019061032691906121fb565b610d52565b6040516103389190611c85565b60405180910390f35b60007f80ac58cd000000000000000000000000000000000000000000000000000000007bffffffffffffffffffffffffffffffffffffffffffffffffffffffff1916827bffffffffffffffffffffffffffffffffffffffffffffffffffffffff1916148061040c57507f5b5e139f000000000000000000000000000000000000000000000000000000007bffffffffffffffffffffffffffffffffffffffffffffffffffffffff1916827bffffffffffffffffffffffffffffffffffffffffffffffffffffffff1916145b8061041c575061041b82610de6565b5b9050919050565b6060600080546104329061226a565b80601f016020809104026020016040519081016040528092919081815260200182805461045e9061226a565b80156104ab5780601f10610480576101008083540402835291602001916104ab565b820191906000526020600020905b81548152906001019060200180831161048e57829003601f168201915b5050505050905090565b60006104c082610e50565b6004600083815260200190815260200160002060009054906101000a900473ffffffffffffffffffffffffffffffffffffffff169050919050565b600061050682610aa1565b90508073ffffffffffffffffffffffffffffffffffffffff168373ffffffffffffffffffffffffffffffffffffffff161415610577576040517f08c379a000000000000000000000000000000000000000000000000000000000815260040161056e9061230e565b60405180910390fd5b8073ffffffffffffffffffffffffffffffffffffffff16610596610e9b565b73ffffffffffffffffffffffffffffffffffffffff1614806105c557506105c4816105bf610e9b565b610d52565b5b610604576040517f08c379a00000000000000000000000000000000000000000000000000000000081526004016105fb906123a0565b60405180910390fd5b61060e8383610ea3565b505050565b61061c82610f5c565b61065b576040517f08c379a00000000000000000000000000000000000000000000000000000000081526004016106529061240c565b60405180910390fd5b3373ffffffffffffffffffffffffffffffffffffffff1661067b83610aa1565b73ffffffffffffffffffffffffffffffffffffffff16146106d1576040517f08c379a00000000000000000000000000000000000000000000000000000000081526004016106c890612478565b60405180910390fd5b60006007600084815260200190815260200160002060009054906101000a900473ffffffffffffffffffffffffffffffffffffffff169050600060066000858152602001908152602001600020549050600073ffffffffffffffffffffffffffffffffffffffff168273ffffffffffffffffffffffffffffffffffffffff161415610791576040517f08c379a0000000000000000000000000000000000000000000000000000000008152600401610788906124e4565b60405180910390fd5b8173ffffffffffffffffffffffffffffffffffffffff166323b872dd3385846040518463ffffffff1660e01b81526004016107ce93929190612504565b602060405180830381600087803b1580156107e857600080fd5b505af11580156107fc573d6000803e3d6000fd5b505050506040513d601f19601f820116820180604052508101906108209190612550565b5050505050565b610838610832610e9b565b82610f9d565b610877576040517f08c379a000000000000000000000000000000000000000000000000000000000815260040161086e906125ef565b60405180910390fd5b610882838383611032565b505050565b61089082610f5c565b6108cf576040517f08c379a00000000000000000000000000000000000000000000000000000000081526004016108c69061240c565b60405180910390fd5b3373ffffffffffffffffffffffffffffffffffffffff166108ef83610aa1565b73ffffffffffffffffffffffffffffffffffffffff1614610945576040517f08c379a000000000000000000000000000000000000000000000000000000000815260040161093c90612478565b60405180910390fd5b610950338284611032565b5050565b60008111610997576040517f08c379a000000000000000000000000000000000000000000000000000000000815260040161098e9061265b565b60405180910390fd5b600073ffffffffffffffffffffffffffffffffffffffff168273ffffffffffffffffffffffffffffffffffffffff161415610a07576040517f08c379a00000000000000000000000000000000000000000000000000000000081526004016109fe906124e4565b60405180910390fd5b610a11848461132c565b806006600085815260200190815260200160002081905550816007600085815260200190815260200160002060006101000a81548173ffffffffffffffffffffffffffffffffffffffff021916908373ffffffffffffffffffffffffffffffffffffffff16021790555050505050565b610a9c83838360405180602001604052806000815250610c88565b505050565b600080610aad8361134a565b9050600073ffffffffffffffffffffffffffffffffffffffff168173ffffffffffffffffffffffffffffffffffffffff161415610b1f576040517f08c379a0000000000000000000000000000000000000000000000000000000008152600401610b16906126c7565b60405180910390fd5b80915050919050565b60008073ffffffffffffffffffffffffffffffffffffffff168273ffffffffffffffffffffffffffffffffffffffff161415610b99576040517f08c379a0000000000000000000000000000000000000000000000000000000008152600401610b9090612759565b60405180910390fd5b600360008373ffffffffffffffffffffffffffffffffffffffff1673ffffffffffffffffffffffffffffffffffffffff168152602001908152602001600020549050919050565b606060018054610bef9061226a565b80601f0160208091040260200160405190810160405280929190818152602001828054610c1b9061226a565b8015610c685780601f10610c3d57610100808354040283529160200191610c68565b820191906000526020600020905b815481529060010190602001808311610c4b57829003601f168201915b5050505050905090565b610c84610c7d610e9b565b8383611387565b5050565b610c99610c93610e9b565b83610f9d565b610cd8576040517f08c379a0000000000000000000000000000000000000000000000000000000008152600401610ccf906125ef565b60405180910390fd5b610ce4848484846114f4565b50505050565b6060610cf582610e50565b6000610cff611550565b90506000815111610d1f5760405180602001604052806000815250610d4a565b80610d2984611567565b604051602001610d3a9291906127b5565b6040516020818303038152906040525b915050919050565b6000600560008473ffffffffffffffffffffffffffffffffffffffff1673ffffffffffffffffffffffffffffffffffffffff16815260200190815260200160002060008373ffffffffffffffffffffffffffffffffffffffff1673ffffffffffffffffffffffffffffffffffffffff16815260200190815260200160002060009054906101000a900460ff16905092915050565b60007f01ffc9a7000000000000000000000000000000000000000000000000000000007bffffffffffffffffffffffffffffffffffffffffffffffffffffffff1916827bffffffffffffffffffffffffffffffffffffffffffffffffffffffff1916149050919050565b610e5981610f5c565b610e98576040517f08c379a0000000000000000000000000000000000000000000000000000000008152600401610e8f906126c7565b60405180910390fd5b50565b600033905090565b816004600083815260200190815260200160002060006101000a81548173ffffffffffffffffffffffffffffffffffffffff021916908373ffffffffffffffffffffffffffffffffffffffff160217905550808273ffffffffffffffffffffffffffffffffffffffff16610f1683610aa1565b73ffffffffffffffffffffffffffffffffffffffff167f8c5be1e5ebec7d5bd14f71427d1e84f3dd0314c0f7b2291e5b200ac8c7c3b92560405160405180910390a45050565b60008073ffffffffffffffffffffffffffffffffffffffff16610f7e8361134a565b73ffffffffffffffffffffffffffffffffffffffff1614159050919050565b600080610fa983610aa1565b90508073ffffffffffffffffffffffffffffffffffffffff168473ffffffffffffffffffffffffffffffffffffffff161480610feb5750610fea8185610d52565b5b8061102957508373ffffffffffffffffffffffffffffffffffffffff16611011846104b5565b73ffffffffffffffffffffffffffffffffffffffff16145b91505092915050565b8273ffffffffffffffffffffffffffffffffffffffff1661105282610aa1565b73ffffffffffffffffffffffffffffffffffffffff16146110a8576040517f08c379a000000000000000000000000000000000000000000000000000000000815260040161109f9061284b565b60405180910390fd5b600073ffffffffffffffffffffffffffffffffffffffff168273ffffffffffffffffffffffffffffffffffffffff161415611118576040517f08c379a000000000000000000000000000000000000000000000000000000000815260040161110f906128dd565b60405180910390fd5b611125838383600161163f565b8273ffffffffffffffffffffffffffffffffffffffff1661114582610aa1565b73ffffffffffffffffffffffffffffffffffffffff161461119b576040517f08c379a00000000000000000000000000000000000000000000000000000000081526004016111929061284b565b60405180910390fd5b6004600082815260200190815260200160002060006101000a81549073ffffffffffffffffffffffffffffffffffffffff02191690556001600360008573ffffffffffffffffffffffffffffffffffffffff1673ffffffffffffffffffffffffffffffffffffffff168152602001908152602001600020600082825403925050819055506001600360008473ffffffffffffffffffffffffffffffffffffffff1673ffffffffffffffffffffffffffffffffffffffff16815260200190815260200160002060008282540192505081905550816002600083815260200190815260200160002060006101000a81548173ffffffffffffffffffffffffffffffffffffffff021916908373ffffffffffffffffffffffffffffffffffffffff160217905550808273ffffffffffffffffffffffffffffffffffffffff168473ffffffffffffffffffffffffffffffffffffffff167fddf252ad1be2c89b69c2b068fc378daa952ba7f163c4a11628f55a4df523b3ef60405160405180910390a46113278383836001611645565b505050565b61134682826040518060200160405280600081525061164b565b5050565b60006002600083815260200190815260200160002060009054906101000a900473ffffffffffffffffffffffffffffffffffffffff169050919050565b8173ffffffffffffffffffffffffffffffffffffffff168373ffffffffffffffffffffffffffffffffffffffff1614156113f6576040517f08c379a00000000000000000000000000000000000000000000000000000000081526004016113ed90612949565b60405180910390fd5b80600560008573ffffffffffffffffffffffffffffffffffffffff1673ffffffffffffffffffffffffffffffffffffffff16815260200190815260200160002060008473ffffffffffffffffffffffffffffffffffffffff1673ffffffffffffffffffffffffffffffffffffffff16815260200190815260200160002060006101000a81548160ff0219169083151502179055508173ffffffffffffffffffffffffffffffffffffffff168373ffffffffffffffffffffffffffffffffffffffff167f17307eab39ab6107e8899845ad3d59bd9653f200f220920489ca2b5937696c31836040516114e79190611c85565b60405180910390a3505050565b6114ff848484611032565b61150b848484846116a6565b61154a576040517f08c379a0000000000000000000000000000000000000000000000000000000008152600401611541906129db565b60405180910390fd5b50505050565b606060405180602001604052806000815250905090565b6060600060016115768461183d565b01905060008167ffffffffffffffff8111156115955761159461204d565b5b6040519080825280601f01601f1916602001820160405280156115c75781602001600182028036833780820191505090505b509050600082602001820190505b600115611634578080600190039150507f3031323334353637383961626364656600000000000000000000000000000000600a86061a8153600a858161161e5761161d6129fb565b5b049450600085141561162f57611634565b6115d5565b819350505050919050565b50505050565b50505050565b6116558383611990565b61166260008484846116a6565b6116a1576040517f08c379a0000000000000000000000000000000000000000000000000000000008152600401611698906129db565b60405180910390fd5b505050565b60006116c78473ffffffffffffffffffffffffffffffffffffffff16611bae565b15611830578373ffffffffffffffffffffffffffffffffffffffff1663150b7a026116f0610e9b565b8786866040518563ffffffff1660e01b81526004016117129493929190612a7f565b602060405180830381600087803b15801561172c57600080fd5b505af192505050801561175d57506040513d601f19601f8201168201806040525081019061175a9190612ae0565b60015b6117e0573d806000811461178d576040519150601f19603f3d011682016040523d82523d6000602084013e611792565b606091505b506000815114156117d8576040517f08c379a00000000000000000000000000000000000000000000000000000000081526004016117cf906129db565b60405180910390fd5b805181602001fd5b63150b7a0260e01b7bffffffffffffffffffffffffffffffffffffffffffffffffffffffff1916817bffffffffffffffffffffffffffffffffffffffffffffffffffffffff191614915050611835565b600190505b949350505050565b600080600090507a184f03e93ff9f4daa797ed6e38ed64bf6a1f010000000000000000831061189b577a184f03e93ff9f4daa797ed6e38ed64bf6a1f0100000000000000008381611891576118906129fb565b5b0492506040810190505b6d04ee2d6d415b85acef810000000083106118d8576d04ee2d6d415b85acef810000000083816118ce576118cd6129fb565b5b0492506020810190505b662386f26fc10000831061190757662386f26fc1000083816118fd576118fc6129fb565b5b0492506010810190505b6305f5e1008310611930576305f5e1008381611926576119256129fb565b5b0492506008810190505b612710831061195557612710838161194b5761194a6129fb565b5b0492506004810190505b60648310611978576064838161196e5761196d6129fb565b5b0492506002810190505b600a8310611987576001810190505b80915050919050565b600073ffffffffffffffffffffffffffffffffffffffff168273ffffffffffffffffffffffffffffffffffffffff161415611a00576040517f08c379a00000000000000000000000000000000000000000000000000000000081526004016119f790612b59565b60405180910390fd5b611a0981610f5c565b15611a49576040517f08c379a0000000000000000000000000000000000000000000000000000000008152600401611a4090612bc5565b60405180910390fd5b611a5760008383600161163f565b611a6081610f5c565b15611aa0576040517f08c379a0000000000000000000000000000000000000000000000000000000008152600401611a9790612bc5565b60405180910390fd5b6001600360008473ffffffffffffffffffffffffffffffffffffffff1673ffffffffffffffffffffffffffffffffffffffff16815260200190815260200160002060008282540192505081905550816002600083815260200190815260200160002060006101000a81548173ffffffffffffffffffffffffffffffffffffffff021916908373ffffffffffffffffffffffffffffffffffffffff160217905550808273ffffffffffffffffffffffffffffffffffffffff16600073ffffffffffffffffffffffffffffffffffffffff167fddf252ad1be2c89b69c2b068fc378daa952ba7f163c4a11628f55a4df523b3ef60405160405180910390a4611baa600083836001611645565b5050565b6000808273ffffffffffffffffffffffffffffffffffffffff163b119050919050565b6000604051905090565b600080fd5b600080fd5b60007fffffffff0000000000000000000000000000000000000000000000000000000082169050919050565b611c1a81611be5565b8114611c2557600080fd5b50565b600081359050611c3781611c11565b92915050565b600060208284031215611c5357611c52611bdb565b5b6000611c6184828501611c28565b91505092915050565b60008115159050919050565b611c7f81611c6a565b82525050565b6000602082019050611c9a6000830184611c76565b92915050565b600081519050919050565b600082825260208201905092915050565b60005b83811015611cda578082015181840152602081019050611cbf565b83811115611ce9576000848401525b50505050565b6000601f19601f8301169050919050565b6000611d0b82611ca0565b611d158185611cab565b9350611d25818560208601611cbc565b611d2e81611cef565b840191505092915050565b60006020820190508181036000830152611d538184611d00565b905092915050565b6000819050919050565b611d6e81611d5b565b8114611d7957600080fd5b50565b600081359050611d8b81611d65565b92915050565b600060208284031215611da757611da6611bdb565b5b6000611db584828501611d7c565b91505092915050565b600073ffffffffffffffffffffffffffffffffffffffff82169050919050565b6000611de982611dbe565b9050919050565b611df981611dde565b82525050565b6000602082019050611e146000830184611df0565b92915050565b611e2381611dde565b8114611e2e57600080fd5b50565b600081359050611e4081611e1a565b92915050565b60008060408385031215611e5d57611e5c611bdb565b5b6000611e6b85828601611e31565b9250506020611e7c85828601611d7c565b9150509250929050565b60008060408385031215611e9d57611e9c611bdb565b5b6000611eab85828601611d7c565b9250506020611ebc85828601611e31565b9150509250929050565b600080600060608486031215611edf57611ede611bdb565b5b6000611eed86828701611e31565b9350506020611efe86828701611e31565b9250506040611f0f86828701611d7c565b9150509250925092565b60008060008060808587031215611f3357611f32611bdb565b5b6000611f4187828801611e31565b9450506020611f5287828801611d7c565b9350506040611f6387828801611e31565b9250506060611f7487828801611d7c565b91505092959194509250565b600060208284031215611f9657611f95611bdb565b5b6000611fa484828501611e31565b91505092915050565b611fb681611d5b565b82525050565b6000602082019050611fd16000830184611fad565b92915050565b611fe081611c6a565b8114611feb57600080fd5b50565b600081359050611ffd81611fd7565b92915050565b6000806040838503121561201a57612019611bdb565b5b600061202885828601611e31565b925050602061203985828601611fee565b9150509250929050565b600080fd5b600080fd5b7f4e487b7100000000000000000000000000000000000000000000000000000000600052604160045260246000fd5b61208582611cef565b810181811067ffffffffffffffff821117156120a4576120a361204d565b5b80604052505050565b60006120b7611bd1565b90506120c3828261207c565b919050565b600067ffffffffffffffff8211156120e3576120e261204d565b5b6120ec82611cef565b9050602081019050919050565b82818337600083830152505050565b600061211b612116846120c8565b6120ad565b90508281526020810184848401111561213757612136612048565b5b6121428482856120f9565b509392505050565b600082601f83011261215f5761215e612043565b5b813561216f848260208601612108565b91505092915050565b6000806000806080858703121561219257612191611bdb565b5b60006121a087828801611e31565b94505060206121b187828801611e31565b93505060406121c287828801611d7c565b925050606085013567ffffffffffffffff8111156121e3576121e2611be0565b5b6121ef8782880161214a565b91505092959194509250565b6000806040838503121561221257612211611bdb565b5b600061222085828601611e31565b925050602061223185828601611e31565b9150509250929050565b7f4e487b7100000000000000000000000000000000000000000000000000000000600052602260045260246000fd5b6000600282049050600182168061228257607f821691505b602082108114156122965761229561223b565b5b50919050565b7f4552433732313a20617070726f76616c20746f2063757272656e74206f776e6560008201527f7200000000000000000000000000000000000000000000000000000000000000602082015250565b60006122f8602183611cab565b91506123038261229c565b604082019050919050565b60006020820190508181036000830152612327816122eb565b9050919050565b7f4552433732313a20617070726f76652063616c6c6572206973206e6f7420746f60008201527f6b656e206f776e6572206f7220617070726f76656420666f7220616c6c000000602082015250565b600061238a603d83611cab565b91506123958261232e565b604082019050919050565b600060208201905081810360008301526123b98161237d565b9050919050565b7f546f6b656e20646f6573206e6f74206578697374000000000000000000000000600082015250565b60006123f6601483611cab565b9150612401826123c0565b602082019050919050565b60006020820190508181036000830152612425816123e9565b9050919050565b7f4e6f742074686520746f6b656e206f776e657200000000000000000000000000600082015250565b6000612462601383611cab565b915061246d8261242c565b602082019050919050565b6000602082019050818103600083015261249181612455565b9050919050565b7f496e76616c696420455243323020746f6b656e20616464726573730000000000600082015250565b60006124ce601b83611cab565b91506124d982612498565b602082019050919050565b600060208201905081810360008301526124fd816124c1565b9050919050565b60006060820190506125196000830186611df0565b6125266020830185611df0565b6125336040830184611fad565b949350505050565b60008151905061254a81611fd7565b92915050565b60006020828403121561256657612565611bdb565b5b60006125748482850161253b565b91505092915050565b7f4552433732313a2063616c6c6572206973206e6f7420746f6b656e206f776e6560008201527f72206f7220617070726f76656400000000000000000000000000000000000000602082015250565b60006125d9602d83611cab565b91506125e48261257d565b604082019050919050565b60006020820190508181036000830152612608816125cc565b9050919050565b7f416d6f756e74206d7573742062652067726561746572207468616e207a65726f600082015250565b6000612645602083611cab565b91506126508261260f565b602082019050919050565b6000602082019050818103600083015261267481612638565b9050919050565b7f4552433732313a20696e76616c696420746f6b656e2049440000000000000000600082015250565b60006126b1601883611cab565b91506126bc8261267b565b602082019050919050565b600060208201905081810360008301526126e0816126a4565b9050919050565b7f4552433732313a2061646472657373207a65726f206973206e6f74206120766160008201527f6c6964206f776e65720000000000000000000000000000000000000000000000602082015250565b6000612743602983611cab565b915061274e826126e7565b604082019050919050565b6000602082019050818103600083015261277281612736565b9050919050565b600081905092915050565b600061278f82611ca0565b6127998185612779565b93506127a9818560208601611cbc565b80840191505092915050565b60006127c18285612784565b91506127cd8284612784565b91508190509392505050565b7f4552433732313a207472616e736665722066726f6d20696e636f72726563742060008201527f6f776e6572000000000000000000000000000000000000000000000000000000602082015250565b6000612835602583611cab565b9150612840826127d9565b604082019050919050565b6000602082019050818103600083015261286481612828565b9050919050565b7f4552433732313a207472616e7366657220746f20746865207a65726f2061646460008201527f7265737300000000000000000000000000000000000000000000000000000000602082015250565b60006128c7602483611cab565b91506128d28261286b565b604082019050919050565b600060208201905081810360008301526128f6816128ba565b9050919050565b7f4552433732313a20617070726f766520746f2063616c6c657200000000000000600082015250565b6000612933601983611cab565b915061293e826128fd565b602082019050919050565b6000602082019050818103600083015261296281612926565b9050919050565b7f4552433732313a207472616e7366657220746f206e6f6e20455243373231526560008201527f63656976657220696d706c656d656e7465720000000000000000000000000000602082015250565b60006129c5603283611cab565b91506129d082612969565b604082019050919050565b600060208201905081810360008301526129f4816129b8565b9050919050565b7f4e487b7100000000000000000000000000000000000000000000000000000000600052601260045260246000fd5b600081519050919050565b600082825260208201905092915050565b6000612a5182612a2a565b612a5b8185612a35565b9350612a6b818560208601611cbc565b612a7481611cef565b840191505092915050565b6000608082019050612a946000830187611df0565b612aa16020830186611df0565b612aae6040830185611fad565b8181036060830152612ac08184612a46565b905095945050505050565b600081519050612ada81611c11565b92915050565b600060208284031215612af657612af5611bdb565b5b6000612b0484828501612acb565b91505092915050565b7f4552433732313a206d696e7420746f20746865207a65726f2061646472657373600082015250565b6000612b43602083611cab565b9150612b4e82612b0d565b602082019050919050565b60006020820190508181036000830152612b7281612b36565b9050919050565b7f4552433732313a20746f6b656e20616c7265616479206d696e74656400000000600082015250565b6000612baf601c83611cab565b9150612bba82612b79565b602082019050919050565b60006020820190508181036000830152612bde81612ba2565b905091905056fea264697066735822122073cb3450f53556c00f37cd44f4376ca25b30188067fae2a6680e2b4cf1c1223364736f6c63430008090033",
  "immutableReferences": {},
  "source": "pragma solidity ^0.8.9;\r\n\r\nimport \"@openzeppelin/contracts/token/ERC721/ERC721.sol\";\r\nimport \"@openzeppelin/contracts/token/ERC20/IERC20.sol\";\r\n\r\ncontract ERC721Token is ERC721 {\r\n    mapping(uint256 => uint256) private _tokenIdToAmount;\r\n    mapping(uint256 => address) private _tokenIdToERC20;\r\n\r\n    constructor(\r\n        string memory _name,\r\n        string memory _symbol\r\n    ) ERC721(_name, _symbol) {}\r\n\r\n    function mint(\r\n        address _to,\r\n        uint256 _tokenId,\r\n        address _erc20Token,\r\n        uint256 _amount\r\n    ) external {\r\n        require(_amount > 0, \"Amount must be greater than zero\");\r\n        require(_erc20Token != address(0), \"Invalid ERC20 token address\");\r\n\r\n        _safeMint(_to, _tokenId);\r\n        _tokenIdToAmount[_tokenId] = _amount;\r\n        _tokenIdToERC20[_tokenId] = _erc20Token;\r\n    }\r\n\r\n    function transferERC721(uint256 _tokenId, address _to) external {\r\n        require(_exists(_tokenId), \"Token does not exist\");\r\n        require(ownerOf(_tokenId) == msg.sender, \"Not the token owner\");\r\n\r\n        _transfer(msg.sender, _to, _tokenId);\r\n    }\r\n\r\n    function transferERC20(uint256 _tokenId, address _to) external {\r\n        require(_exists(_tokenId), \"Token does not exist\");\r\n        require(ownerOf(_tokenId) == msg.sender, \"Not the token owner\");\r\n\r\n        address erc20Token = _tokenIdToERC20[_tokenId];\r\n        uint256 amount = _tokenIdToAmount[_tokenId];\r\n        require(erc20Token != address(0), \"Invalid ERC20 token address\");\r\n\r\n        IERC20(erc20Token).transferFrom(msg.sender, _to, amount);\r\n    }\r\n}\r\n",
  "sourcePath": "D:\\integrate_assg\\contracts\\combined.sol",
  "compiler": {
    "name": "solc",
    "version": "0.8.9+commit.e5eed63a.Emscripten.clang"
  },
  "schemaVersion": "3.4.14",
  "updatedAt": "2023-06-21T10:09:50.634Z",
  "networkType": "ethereum",
  "devdoc": {
    "kind": "dev",
    "methods": {
      "approve(address,uint256)": {
        "details": "See {IERC721-approve}."
      },
      "balanceOf(address)": {
        "details": "See {IERC721-balanceOf}."
      },
      "getApproved(uint256)": {
        "details": "See {IERC721-getApproved}."
      },
      "isApprovedForAll(address,address)": {
        "details": "See {IERC721-isApprovedForAll}."
      },
      "name()": {
        "details": "See {IERC721Metadata-name}."
      },
      "ownerOf(uint256)": {
        "details": "See {IERC721-ownerOf}."
      },
      "safeTransferFrom(address,address,uint256)": {
        "details": "See {IERC721-safeTransferFrom}."
      },
      "safeTransferFrom(address,address,uint256,bytes)": {
        "details": "See {IERC721-safeTransferFrom}."
      },
      "setApprovalForAll(address,bool)": {
        "details": "See {IERC721-setApprovalForAll}."
      },
      "supportsInterface(bytes4)": {
        "details": "See {IERC165-supportsInterface}."
      },
      "symbol()": {
        "details": "See {IERC721Metadata-symbol}."
      },
      "tokenURI(uint256)": {
        "details": "See {IERC721Metadata-tokenURI}."
      },
      "transferFrom(address,address,uint256)": {
        "details": "See {IERC721-transferFrom}."
      }
    },
    "version": 1
  },
  "userdoc": {
    "kind": "user",
    "methods": {},
    "version": 1
  }
}